:100000000C945A000C9477000C9477000C947700B1
:100010000C9477000C9477000C9477000C94770084
:100020000C9477000C9477000C9477000C94770074
:100030000C9477000C9477000C9477000C94770064
:100040000C9477000C9477000C9477000C94770054
:100050000C9477000C9463030C9477000C94770055
:100060000C9477000C9477000C9477000C94770034
:100070000C9477000C9477000C9477000C94770024
:100080000C9477000C9477000C9477000C94770014
:100090000C9477000C9477000C9477000C94770004
:1000A0000C9477000C9477000C9477000C947700F4
:1000B0000C94770011241FBECFEFD8E0DEBFCDBF78
:1000C00011E0A0E0B1E0ECECF9E002C005900D9287
:1000D000A031B107D9F724E0A0E1B1E001C01D9241
:1000E000A13BB207E1F70E9484040C94E4040C9451
:1000F00000003D0A4F0A850AE00A5E0B010CC60C9F
:10010000AE0DB80EE40F31119D122914D3159A17B4
:100110007D197C1B931DC41F0B226824D9265C29E2
:10012000F12B962E48310634CF36A1397A3C583F10
:100130003A421E450148E34AC14D9A506C53355628
:10014000F458A65B4A5EDF606363D4653168786A01
:10015000A86CC06EBE70A172687412769E770B791F
:10016000577A837B8D7C757D3B7EDD7E5B7FB67FA2
:10017000EC7FFE7FEC7FB67F5B7FDD7E3B7E757D17
:100180008D7C837B577A0B799E7712766874A17287
:10019000BE70C06EA86C786A3168D4656363DF6036
:1001A0004A5EA65BF45835566C539A50C14DE34AEB
:1001B00001481E453A42583F7A3CA139CF360634B1
:1001C0004831962EF12B5C29D92668240B22C41FB6
:1001D000931D7C1B7E199A17D31529149D1231117A
:1001E000E40FB80EAE0DC60C010C5E0BE00A850ADA
:1001F0004F0AFF7F0000D77F4706617F8B0C9C7EF4
:10020000C712897DF818297C191F7C7A27258378E5
:100210001E2B4076FB30B573B936E170563CC96D84
:10022000CD416C6A1C47CE663F4CF1623351D65EBD
:10023000F455815A815AF455D65E3351F1623F4CE0
:10024000CE661C476C6ACD41C96D563CE170B9362B
:10025000B573FB3040761E2B837827257C7A191FD7
:10026000297CF818897DC7129C7E8B0C617F47061C
:10027000D77F0000FE7FB9F9D77F75F3617F39ED35
:100280009C7E08E7897DE7E0297CD9DA7C7AE2D494
:10029000837805CF407647C9B573AAC3E17033BEF2
:1002A000C96DE4B86C6AC1B3CE66CDAEF1620CAA7A
:1002B000D65E7FA5815A2AA1F5550F9D33513299FB
:1002C0003F4C94951C473792CD411F8F563C4C8C28
:1002D000B936C089FB307D871E2B84852725D883BE
:1002E000191F7782F8186481C7129F808B0C2980B0
:1002F0004706000000018000800140004001C0006E
:10030000C00120002001A000A00160006001E00009
:10031000E001100010019000900150005001D00049
:10032000D00130003001B000B00170007001F00069
:10033000F001080008018800880148004801C80051
:10034000C80128002801A800A80168006801E80089
:10035000E801180018019800980158005801D800C9
:10036000D80138003801B800B80178007801F800E9
:10037000F8013F922F921F930F93DF93CF93DC01ED
:10038000EB019927E2EFF0E000E810E025913591CC
:100390004D915D91B503B0012C031001691FBC03A1
:1003A000790B300C611D791FDA03790B300C611D5C
:1003B000791F69937993699379930150104031F7CC
:1003C000CF91DF910F911F912F903F9011240895AD
:1003D0003F922F925F924F927F926F929F928F9255
:1003E000BF92AF92DF92CF92FF92EF921F930F9343
:1003F000DF93CF93FC0181E090E0A0E4B0E004E063
:10040000809F6001909FD00C7C019F938F93EF01A0
:10041000A09FC00DD11DB09FD00DFF93EF93BB24C3
:10042000AA24992700811181159507956881798102
:1004300075956795A801061B170B460F571F41932B
:10044000519320813181359527956A817B817595FE
:100450006795A901261B370B460F571F41935193F0
:100460000F01E2EFF1E0EA0DFB1D45915591659119
:100470007591F001950320010C031001491E9C03A6
:10048000590A300C411C591ED803590A300C411C22
:10049000591EB70340012E033001891EBE03990A7D
:1004A000700C811C991EFA03990A700C811C991E0C
:1004B000260C371C481C591C49925992B50320013F
:1004C0002C031001491EBC03590A300C411C591E53
:1004D000DA03590A300C411C591E970340010E03E0
:1004E0003001891E9E03990A700C811C991EF80325
:1004F000990A700C811C991E26183708480859085B
:1005000049925992AC0CBD1CB0FE8CCF04E0A09F68
:10051000C00DD11DE00DF11DB09FD00DF00D81E09B
:10052000E81AF90A09F07BCFEF91FF918F919F9123
:10053000880F991FB695A795109609F060CFCF91B7
:10054000DF910F911F91EF90FF90CF90DF90AF90D0
:10055000BF908F909F906F907F904F905F902F9063
:100560003F9008953F922F925F924F927F926F92A9
:100570009F928F92BF92AF921F930F93DF93CF936F
:100580005C01EB01E2EFF2E0992700E410E0A591B5
:10059000B591AA0DBB1D2D913D914D915D91B30378
:1005A00020012A031001491EBA03590A300C411CCC
:1005B000591EBA03590A300C411C591ED50340017B
:1005C0004C033001891EDC03990A700C811C991EB2
:1005D000DC03990A700C811C991E260C371C481CE0
:1005E000591C662477248824992421E030E044278C
:1005F000552770E1220C331C441C551C661C771CCB
:10060000881C991C220C331C441C551C661C771C2E
:10061000881C991C2AF4620E731E841E951E04C049
:10062000621A730A840A950A220F331F441F287F17
:10063000256097FC22507A95E9F6469537952795DF
:10064000469537952795299339930150104009F025
:100650009ECFCF91DF910F911F91AF90BF908F9060
:100660009F906F907F904F905F902F903F901124BC
:100670000895AC019927D703F0014E03D001E91F7B
:10068000DE03F90BB00DE11DF91FFC03F90BB00DF2
:10069000E11DF91FCF011124089581E080937C00B2
:1006A0008FEE80937A0010927B0082E080937E0030
:1006B00010926E00789480E8E1E3F3E0DF011D9290
:1006C0008A95E9F708951F920F920FB60F921124A1
:1006D0002F933F938F939F93EF93FF938091780095
:1006E00090917900E0913001F0E09C012D5F314064
:1006F0002730310510F0925002C080E090E0EE0FFC
:10070000FF1FEF54FC4F91838083809130018F5FF6
:100710008093300188232CF4EAE7F0E08081877F22
:100720008083FF91EF919F918F913F912F910F9037
:100730000FBE0F901F90189588B1827C88B98BB13D
:1007400083708BB98EB18A7F8EB985B1887F85B968
:10075000089518161906E4F42A9A82309105C4F017
:10076000299A83309105A4F0289A8430910584F069
:100770005F9A8530910564F05E9A8630910544F069
:100780005A9A8730910524F05B9A08970CF05C9A8E
:100790000895009711F4449A21C08130910511F415
:1007A000439A1CC08230910511F4429A17C08330DD
:1007B000910511F4459A12C08430910511F45D9AA7
:1007C0000DC08530910511F4729A08C086309105EC
:1007D00011F4709A03C0079709F4409ACB010E9464
:1007E000A9038FE99FE00197F1F700C000000E9484
:1007F0009C030895EF92FF920F931F93CF93DF9383
:10080000CDB7DEB760970FB6F894DEBF0FBECDBF91
:1008100020E1E0E0F1E0DE01119601900D922A95D1
:10082000E1F7DC01ED91FD9121E030E088E090E01E
:100830004D915D91E40FF51F2F5F3F4FA901477068
:100840005527452B09F04FC02115310509F44BC040
:10085000A901332314F4495F5F4F5595479555958A
:1008600047955595479541505109BF01FF2314F411
:10087000695F7F4F759567957595679575956795D0
:100880007A01EE0CFF1C8701005F1E4FF801718397
:100890006083E1E0F0E0EC0FFD1FEE0DFF1D019025
:1008A000F081E02D6E177F0730F4F801118210827D
:1008B000E0E0F0E018C06E1B7F0BFA01EE0FFF1FA7
:1008C000E05FFE4F718360836930710550F0440F23
:1008D000551FFA01E05FFE4F91838083E0E0F0E076
:1008E00002C0E0E0F0E02034310509F0A1CF6096CD
:1008F0000FB6F894DEBF0FBECDBFDF91CF911F9131
:100900000F91FF90EF9008950E944D030F2EFAE78C
:10091000CF2ED12CF02D0F2EF0E3EF2EF1E0FF2E95
:10092000F02D61E371E081EB93E00E94B901109238
:100930003001F60180818860808381E391E00E942C
:10094000E80161E373E081E391E00E94B20281E398
:1009500093E00E94FA03A0E1B1E000E211E0F801A7
:100960002D913D91808191812817390718F03183AD
:10097000208305C0009719F00197918380833296F8
:10098000EE15FF0569F70F2EF0E2AF2EF1E0BF2E56
:10099000F02DC0E0D0E0F501619171915F01CE01D1
:1009A0000E94C9032196C830D105A9F7C0E0D0E064
:1009B000F801619171918F01CE010E94C9032196C6
:0C09C000C830D105A9F7ADCFF894FFCFE7
:1009CC000C00040002000300010001000100020001
:00000001FF
